:040000008A110D282C
:10000800FE00030EF6000408F7000A08F8008A1537
:10001800B82B8A156D2AF01F352898268A112D28A5
:1000280083126430051585108316CA0A4A02031C18
:100038000800CA01C90A080083126430051585142E
:100048008316CA0A4A02031C0800CA01C901F01330
:1000580008004908003A03191428013A031920280E
:100068003B288312051185108316C901CA010800AF
:1000780083128A278A115F258A1183165808A53AA0
:1000880003195928A530D201D301D401D501D601CD
:10009800D60AD701D8008312D230A001A00AA10144
:1000A800A2000730A300B7278A11982EF0298316DB
:1000B80054278A11D5248A11FF291030B5000A3037
:1000C800B701B70A95278A11031C2629013009228E
:1000D8008A1126291130B2278A11F01E7E280A308B
:1000E80037278A11ED228A1114278A11AF228A1123
:1000F8002008B6006430EB0A6B02031C2629003086
:1001080010228A1126291130B5000A30A000831662
:10011800560818228A11B7000A30A000831656081C
:1001280034228A1195278A11031C26298316D6089A
:10013800031DA328D708031DA3280A30AA28560898
:10014800183A031DA928F901AB285708F90003300C
:10015800FA01FB01FC0109228A1126291230B22773
:100168008A11F01EC2280A3037278A11ED228A1117
:1001780014278A11AF228A112008B6006430EB0ACE
:100188006B02031C2629043009228A1126298316AA
:10019800D608031DD528D708031DD5283230D70027
:1001A800E1285608183A031DDE2857080319DE28E7
:1001B800D701E128003010228A11053009228A115E
:1001C80026290E30B500B700B6001430F015EB0A3A
:1001D8006B02031C2629063009228A1126291230AF
:1001E800B5000A30A0008316570818228A11B700F4
:1001F8000A30A0008316570834228A1195278A11DD
:10020800031C2629F01D0D290030F01110228A1137
:10021800262983165508FC005408FB005308FA00E9
:100228005208F900023010228A1126296D0884002C
:10023800073004020318262907308A000310040D2A
:10024800EC3E820083123508013E84008A150020A6
:100258008A114C278A1500208A1144278A15002004
:100268008A11FF3A8316CE00FF29113084008A15BF
:1002780000208A11FF3A8316D000033084008A15C3
:1002880000208A11A9278A1500208A11FF3ACE007A
:1002980014308312EB0A6B02031CFF290130092278
:1002A8008A11FF295E278A11B10A51228A11A427CF
:1002B8008A11031CFF29023009228A11FF295E27AF
:1002C8008A1151228A119A278A11031CFF290030AA
:1002D80010228A11FF296D08003A03193929013AB9
:1002E80003195629033A03196329FF290A30A00084
:1002F8008316420818228A11B7000A30A000831614
:1003080042083422B600123084008A1500208A116F
:100318004C278A1500208A1144278A1500208A1143
:10032800FF3A8316CE002830CE138312EB0A6B02F5
:10033800031CFF29013009228A11FF290A30A00075
:100348008316470818228A11B7000A30A0008316BE
:1003580047083422B600133084008A1500208A1119
:100368004C278A1500208A1144278A1500208A11F3
:10037800FF3A8316CE009A278A11031CFF29003002
:1003880010228A11FF298316F1268A11B10A5122F7
:100398008A11A4278A11031CFF29033009228A1114
:1003A800FF298316F1268A1151228A119A278A1168
:1003B800031CFF29003010228A11FF296D08003A1A
:1003C80003197A29013A0319A229033A0319C729FB
:1003D800013A0319D529FF2983126C08003A031939
:1003E8005B28013A03191A29033A03196F29013ABC
:1003F8000319E229FF29F01F052A83164610C6149F
:10040800080083164614C610080083120313A000C0
:10041800EB01ED000330AE2F83120313A000EC00B4
:100428000330ED01EB01AE2F8312A100A3012008D8
:100438000319322AA201A20AA01B252A0310A00D23
:100448001F2A0310A30D20082102031C2F2A2008AD
:10045800A10223140310A00CA20B252A23080800CC
:100468008312A2000830A300A4012208A1000730CB
:100478000310A10CFF3E0310031D3D2A240D210487
:10048800A4000310A20D20082402031C4D2A2008F2
:10049800A402A30B392A24080800310B692A033067
:1004A800A301A201A100E830A0003008A7002F088E
:1004B800A6002E08A5002D08A400ED228A113227D7
:1004C8008A112108AE002008AD000A3002278A11DF
:1004D800AF228A112008B20024278A11ED228A113E
:1004E80032278A110F278A1102278A11AF228A110F
:1004F8002008B30024278A11ED228A1132278A1195
:100508000F278A1102278A11AF222008B400320867
:10051800013E84008A1500208A11FF3A8316CE0016
:1005280083123308013E84008A1500208A11FF3A9D
:100538008316CF0083123408013E84008A150020F8
:100548008A11FF3A8316D0008312B108031D0800F0
:100558008316CE130800230822042104200403195B
:10056800E42AA801A80AA31BBF2A0310A00DA10D05
:10057800A20DA30DB62A23082702031DCD2A22089F
:100588002602031DCD2A21082502031DCD2A200895
:100598002402031CDE2A2008A4022108031C210FC0
:1005A800A5022208031C220FA6022308031C230FFE
:1005B800A7020310A30CA20CA10CA00CA80BBF2A25
:1005C8002708A3002608A2002508A1002408A000E7
:1005D8000800A801A901AA01AB01230822042104EB
:1005E800200403192C2BAC01AC0AA31B012B03100C
:1005F800A00DA10DA20DA30DF82A0310A80DA90D99
:10060800AA0DAB0D23082702031D142B220826026E
:10061800031D142B21082502031D142B2008240276
:10062800031C262B2008A4022108031C210FA50265
:100638002208031C220FA6022308031C230FA7026B
:1006480028140310A30CA20CA10CA00CAC0B012BBA
:100658002B08A3002A08A2002908A1002808A00046
:1006680008007114B5248A110038031D362B701C3C
:10067800422B8316F1268A1151228A1183126F1890
:100688003B2BC0248A11B5248A110038031D472B3F
:100698008312EB01EE018316C601C60A701C522BA9
:1006A80070108312EB08031DA22B2830EB008A2B55
:1006B8007F308316D000CF00882B8316FF30D001FF
:1006C800CF00FF30882BFF308316D000CF01652B79
:1006D800FF308316D000CF00CE01982B6E08013E64
:1006E80084008A1500208A11FF3A8316D0009F27BC
:1006F8008A1500208A11FF3A8316CF009F278A1592
:1007080000208A11FF3A8316CE00982B6E080A3A09
:1007180003195C2B013A0319612B073A0319672B5C
:10072800013A03196C2B722B0E308312EE0A6E02FB
:100738000318EE0103308316C606A32BEB038312BE
:100748006F18522BC0248A11B5248A110038031D52
:10075800A82B8312EA01EB01EE01701CB12B70107B
:100768006F19BF2B0A306B02031CBD2BEE01EE0A7A
:10077800E42BEB0AE42BEF18C72B0A306B02031C9F
:10078800BD2B0230CE2B6F18D02B0A306B02031C06
:10079800BD2B0330EE00E42BEB08031DE32B6E0B9F
:1007A800D72B6A14E12B6E08023A031DDD2BEA14DD
:1007B800E12B6E08033A03196A15EE01E42BEB03EB
:1007C8006E08A700A801A901D5248A1183126F1801
:1007D800B12B6A08073A031DB12BC0248A11B5242E
:1007E8008A110038031DF32B831668278A11C61057
:1007F800701CFC2B7010701F072C83126F19EF1CD4
:10080800172C7013172C8312EF18112C0330EE0AD3
:100818006E02031C162CEE01162C6F19172C83166A
:1008280068278A1170178312EE08031D212C83167E
:1008380054278A11D5248A11342C6E0B2F2C831639
:1008480035088312A800831634088312A700A9016B
:10085800D5248A11342C8316F1268A1151228A1143
:1008680002308316BA0A3A02031C3E2CBA018A15D2
:10087800FC248A1183126F18FC2BC0248A11B5241A
:100888008A110038031D432CC0308316D000D030A5
:10089800CF009930CE00831205118514701C5F2C8F
:1008A800283070108316CA0A4A02031C5F2C0630CF
:1008B800CA018312850683126F18522CC0248A112C
:1008C800831205118510B5248A110038031D672C81
:1008D80083125530EA01EE000830EB016B02031871
:1008E8007F2C6E08A0006B0A79268A1183120830C3
:1008F8000313EB0A722CEB0108306B0203188F2CE0
:100908006B0A84258A1103136E0603198D2CEA01DC
:10091800EA0AEB0A802C6A0303199D2CEE080319D6
:100928009D2C6E08553A031D9B2CAA306F2CEE01A6
:10093800702C8A278A115F258A11EA08031DAB2CBF
:1009480085308316D0008A30CF00FF30B02C893034
:100958008316D000BD30CF00CE0083126F1C362B1B
:10096800B12C83126F08FF3A03190034BF30831685
:10097800D000CF00CE0001340B3084008A1500204F
:100988008A11FF3A8316CE000B3084008A150020A6
:100998008A11A9278A150020FF3AD000FF30C60027
:1009A800080082278A113B258A112008AA0072278D
:1009B8008A1111258A112108A8002008A70082277A
:1009C8008A113B258A112008AB0072278A1111254C
:1009D8002008AC002A08013E84008A1500208A11EC
:1009E800FF3A8316CE0083122B08013E84008A1535
:1009F80000208A11FF3A8316CF0083122C08013E8B
:100A080084008A1500208A11FF3A8316D0008312C9
:100A1800290B08008316CF130800A401A50121089B
:100A280020040319362DA601A60AA11B1F2D0310A9
:100A3800A00DA10D182D0310A40DA50D210823024A
:100A4800031D282D20082202031C322D2008A20293
:100A58002108031CA303A30224140310A10CA00C57
:100A6800A60B1F2D2508A1002408A00008002108B6
:100A7800200403195A2DA401A40AA11B472D031011
:100A8800A00DA10D402D21082302031D4D2D200886
:100A98002202031C562D2008A2022108031CA303CE
:100AA800A3020310A10CA00CA40B472D2308A1003E
:100AB8002208A0000800A3002308A4008316031737
:100AC8008C18622D83120313200803178D0003135B
:100AD800A2032208FF3A03190800831603178C188B
:100AE800712D8C130C14831203132408840003172C
:100AF8000C08831380000313A40A03178D0A6B2DB7
:100B0800A0006400831603178C18852D8312031325
:100B1800200803178D003F3083168C050C14031032
:100B28000C1803140318013083120C080800701FF6
:100B3800C52D831203136F08FF3A03197013831628
:100B4800C408031DC02D83126F19B92DEC08031DAD
:100B5800B52D83165608F9000130FA01FB01FC0196
:100B68001022FF308316C40008006F18EF18080021
:100B780014308316C400472E4408FF3A031DC403EB
:100B88000800831203136F1D222E2E2EC8308316E1
:100B9800762E6D0BEE2D831656087A278A11031DC3
:100BA800DF2D7B082406031DDF2D7A082306031D8D
:100BB800DF2D790822060319EA2D79088316D60055
:100BC80056088312A000053079268A1102300922BE
:100BD8008A11772E6D08033A031D772E831657085E
:100BE8007A278A11031D022E7B082406031D022E74
:100BF8007A082306031D022E7908220603190D2EF2
:100C080079088316D70057088312A0000630792682
:100C18008A1198268A11063009228A11772E7C08B3
:100C28007B047A047904031D1E2E8316D201D30196
:100C3800D401D501003010228A11772E6C08003AB1
:100C48000319CA2D013A0319CD2D033A0319132E9E
:100C5800772E772EEF1C472E502E6D0B352EA126A2
:100C68008A116D08033A031D712EBF268A11712E51
:100C78006D080319712EF901FA01FB01FC01712EAF
:100C8800E9268A11712E83126C08013A0319312E54
:100C9800033A03193C2E442E6F180800632E0330C4
:100CA80010228A11712E02306D0203185F2E023055
:100CB80009228A11712E003010228A11712E6C08B7
:100CC800003A0319532E013A0319712E033A0319F6
:100CD800712E013A0319572E712E701B08004630E9
:100CE80083160313C40070170800A10083160317A6
:100CF8008C187A2E83120313210803178D0003130F
:100D0800200803178C003F3083168C0503108B1BBB
:100D1800031455308B130C158D00AA308D008C14DC
:100D28000C1103188B170800831603135608C2000A
:100D38005708C700CD01B9010800F90A0319FA0AD2
:100D48000319FB0A0319FC0A00307C02031DB62EA6
:100D580000307B02031DB62E00307A02031DB62E2A
:100D680019307902031CBC2EF901FA01FB01FC01C0
:100D780007308316902F83165608183A031DC62E7F
:100D8800F901E42E0A30F90701300318FA070318AD
:100D9800FB070318FC0700307C02031DDD2E003022
:100DA8007B02031DDD2E00307A02031DDD2E333059
:100DB8007902031CE72ED608031DC42E0A30F90059
:100DC800FA01FB01FC010730902FF01B0800F01717
:100DD80083160313C901CA01080055088312B0001D
:100DE800831654088312AF00831653088312AE008B
:100DF800831652088312AD00B1010800A000A101BA
:100E0800A201A3013008A7002F08A6002E08A500FC
:100E18002D08A40008002108AE002008AD000A34FF
:100E28002008B7000A30A000A101A201A3017C0894
:100E3800A7007B08A6007A08A5007908A400080086
:100E48000A30A000A101A201A3013008A7002F08C1
:100E5800A6002E08A5002D08A40008002308B0004D
:100E68002208AF000800A000A101A201A3017C088C
:100E7800A7007B08A6007A08A5007908A400080046
:100E8800FF3A8316CF0083123608013E840008001B
:100E9800FF3A8316D00083123708013E8400080009
:100EA80037088312A800831636088312A700A90101
:100EB800A90A08007C08B0007B08AF007A08AE00D9
:100EC8007908AD00B1010800B401B5018312EE0143
:100ED8008316D201D301D401D50108000A30A0003D
:100EE800A1012808A3002708A20008008312A20075
:100EF800A301A401A5017C08250608000A30A0006A
:100F0800A1012808A3002708A20008000730A001B3
:100F1800A00AA101A200D234BF00F0168312EB018F
:100F28000800B6001430EB0A6B0208006430831224
:100F3800EB0A6B02080083126E08013E8400080069
:100F480028308312EB0A6B020800FF3ACF000B30FF
:100F5800840008008316BF00F0160800B5000A30A8
:100F6800B700B60008002208A400831603178C18DF
:100F7800B92F831203132008FF3E03178D00831631
:100F88008C1383120313A3032308FF3A03190800E1
:100F9800831603178C18CC2F83120313240884009C
:100FA8008313000803178C000313A40A03178D0A80
:100FB80003108B1B03148B13831655300C158D00EF
:100FC800AA308D008C140C11031CC52F8B17C52F4C
:100FD8008A1161288A116E288A1187288A11B228F5
:0C0FE8008A11CB288A11E5288A11F32811
:1010000008308A000408840A820700343F34093417
:101010005E345D3469347534773419347F347D340B
:101020000034013436344F34763472347A346B34CD
:02103000433447
:1014A40032304B02031C582A71100800CB0A080082
:1014B40064008001840A04060319003404065B2ACC
:1014C4008316BF08031D6B2A0430BF002030F006CA
:1014D4000800BF030800A030F001F101F901FA018E
:1014E400FB01FC01EB01EC01ED01EE01831384002F
:1014F400D9308A155A228A15203083178400403047
:101504008A155A2283161E30D9008312FF30EF0049
:1015140083018A15292B8B0183168C013F308100AE
:1015240061308F000F1D942AA0228A15A8228A15E3
:10153400BC228A159001C4220B17080003178801E6
:10154400890103139F0183129F0108001130850054
:101554001030831685009601D73083128600EF3051
:101564008316950010308600FF308312870083169F
:1015740087010800F630831281008B120B110800DA
:10158400900108007E30831692000330831292008B
:1015940083168C1408003C30CD0A4D02031C08004D
:1015A400CD0142088312A0003C30A101A200A30196
:1015B40010232108A8002008A700831647088312D7
:1015C400A7070318A80A0130A7020030031CA803C8
:1015D400A8023C30A000A1012808A3002708A2000B
:1015E4008A1111258A1520088316C2003C30831203
:1015F400A000A1012808A3002708A2008A113B2506
:101604008A1520088316C700C208031D0800C708EE
:10161400031D08008A1198268A11E92EA401A50148
:10162400201C1A2B2208A4070318A50A2308A507BF
:101634000310A20DA30D0310A10CA00C210820047B
:10164400031D122B2508A1002408A00008008A15F8
:101654008D228A158A11C0248A1571148A113C209E
:101664008A1583120A3012158B178316D100701C49
:10167400422BF63070100B11831281008316D103B4
:10168400D108031D392B83126F1D6F184C2B8A113F
:1016940035238A15EB01EE01701C762B70106E0851
:1016A400013E84008A1500208A15FF3A8316CE0075
:1016B40083126E08013E84008A1500208A15FF3AC1
:1016C4008316CF0083126E08013E84008A15002021
:1016D4008A15FF3A8316D0001E308312EB0A6B0280
:1016E400031C762BEB01EE0A6E080A3A031D4E2BFF
:1016F400701C7A2B70108A119B258A15902B8A15E1
:1017040062228A158A1552228A15A02B8A115A2020
:101714008A15A02B8A110F208A15A02B8316031378
:101724005108003A0319812B013A0319882B033A13
:1017340003198C2B013A0319A02BA02B0A30D10AD0
:1017440051020318D1010530BA0A3A02031CAE2B28
:10175400BA018A15FC248A156430B90A3902031CBB
:101764007A2BB9018A15CD228A157A2B0B1D072CE9
:10177400F6300B11831203138100701DDB2B101044
:10178400F018D42B0C1CC92B0C108316D90A831205
:101794000E088316BB0083120F088316BC00590879
:1017A400BD00F0148316D90183128E018F01101429
:1017B400E62B8E018F018316D90183120C10831638
:1017C4000C148312101470158316B40A0319B50A85
:1017D4002130C80A4802031C072C0030C8015502F6
:1017E400031DFE2B0F305402031DFE2B4230530207
:1017F400031DFE2B3F3052020318072CD20A031993
:10180400D30A0319D40A0319D50A831203130C1C2F
:10181400232C1C300C108316D90A5902031C232CC8
:101824008312101083160C1083121E300C108316B2
:10183400D90083128E018F01701170128316B601C4
:10184400B70183128C1C542C8C10061486140615B4
:101854000514061E7118492C83165208F200013033
:101864005D248A1503135308F20002305D248A159F
:1018740003135408F20003305D248A15031355083A
:10188400F20004305D248A150313CB017114A224E1
:101894008A1577248A150530B80A3802031C542C9B
:1018A400B801701478088A0077088400760E8300E3
:1018B400FE0E7E0E0900F30003178C185E2C7308CD
:1018C40083128D0072088C003F3083168C05031040
:1018D4008B1B031455308B130C158D00AA308D000F
:1018E4008C140C1103188B1708008C2C46088312D7
:1018F400870006109B2C4F088312870086109B2CB0
:1019040050088312870006119B2C4E08831287000F
:1019140005109B2C83164C08003A0319782C013AC5
:1019240003197D2C033A0319822C013A0319872CDD
:101934009B2C04308316CC0A4C020318CC010800FB
:10194400B7248A15F50045060319AC2C7508C500A3
:10195400C301080043080F3A031DB52CC301450811
:101964008312EF000800C30A0800831207148714C7
:101974000715861683168616F301F30AF303730814
:10198400FF3A031DC02CFF30F200F401D82C83125F
:10199400071487140711E32C831207158710071403
:1019A400E32C8312871407100715E32C7408003AFC
:1019B4000319C92C013A0319CE2C033A0319D32C69
:1019C400E32CF301F30AF3037308FF3A031DE52C38
:1019D4000310F20D8312861EF12C7214F22C721075
:1019E4000330F40A7402031CD82C86128316861260
:1019F40072080800F01CFB2EF0143D088312E1016C
:101A0400E201E300E40183163C088312D300D4010D
:101A1400D501D6015508D6005408D5005308D40082
:101A2400D3015308E107540803110318013E031DB1
:101A3400E207550803110318013E031DE307560886
:101A440003110318013E031DE40783163B088312A8
:101A5400E10701300318E2070318E3070318E4075A
:101A64000630E107FF30031CE207031CE307031CF5
:101A7400E4070030F0106402031D4A2D00306302B5
:101A8400031D4A2D76306202031D4A2D5C3061022B
:101A94000318522D7630E401E301E2005C30E100EA
:101AA40000306402031D602D0D306302031D602DA0
:101AB400DF306202031D602D22306102031C692D98
:101AC4000D30E401E300DF30E2002230E10064087D
:101AD400A3006308A2006208A1006108A0000A3004
:101AE400A700D630A6005330A5004630A4008A11C2
:101AF400ED228A15B1278A15701E8F2D83160310C7
:101B0400400D203E84008312DA278A158316C00A0A
:101B14004002031CD32DC001D32DE5010310650D34
:101B2400203E8400DA278A15E50A6502031C912DFC
:101B3400203002278A15E1278A1569088316B30025
:101B4400831268088316B200831267088316B100F3
:101B5400831266088316B00003308312D300031087
:101B64008316B00DB10DB20DB30D8312D30BB12D8D
:101B74000A3091278A11ED228A15B1278A15E501C9
:101B84000310650DA03E8400EF278A15E50A65025F
:101B9400031CC32D8316C001C1018312CB278A15F0
:101BA4007016203002278A15E1278A156608D300AB
:101BB4006708D4006808D5006908D6008316300881
:101BC4008312D700831631088312D8008316320893
:101BD4008312D900831633088312DA00033003100A
:101BE400DA0CD90CD80CD70CFF3E031DF12D83164B
:101BF40030088312DB00831631088312DC0083165D
:101C040032088312DD00831633088312DE0057087E
:101C1400DB025808031C580FDC025908031C590F37
:101C2400DD025A08031C5A0FDE025B08D3075C0866
:101C340003185C0FD4075D0803185D0FD5075E0811
:101C440003185E0AD60756088316B3008312550894
:101C54008316B200831254088316B100831253080A
:101C64008316B00033088312E90083163208831206
:101C7400E800831631088312E700831630088312C4
:101C8400E6000330E8278A15031D442E0A30912705
:101C94008A11ED228A15B1278A158316BA278A1567
:101CA4005602031D5F2E68085502031D5F2E670848
:101CB4005402031D5F2E66085302031C6D2E831607
:101CC40037088312E000831636088312DF006608A3
:101CD400DF026708782E6708E0006608DF008316D5
:101CE40036088312DF02831637088312031CE003CD
:101CF400E00200306002103003195F020318701212
:101D040000306002023003195F020318932E831619
:101D140036088312E600831637088312E700E801C9
:101D2400E90183160310410DA03E84008312EF27BE
:101D34008A158316C10A41020318C1018312E10105
:101D4400E201E301E401E5010310650DA03E840016
:101D54000008D300840A0008D4005308D5005408AE
:101D6400D600D701D8015508E10756080311031816
:101D7400013E031DE207570803110318013E031D2A
:101D8400E307580803110318013E031DE407083054
:101D9400E50A6502031CA72E6408E9006308E8004D
:101DA4006208E7006108E6000330E8278A15031D8E
:101DB400D72E8316BA278A155606031DEB2E6808FC
:101DC4005506031DEB2E67085406031DEB2E66080B
:101DD40053060319F62E14308316BE0A3E02031C62
:101DE40008008312CB27080083163E08031DBE0398
:101DF40008001E305902031C0800B601B701080090
:101E04008312CC00D2014C0884008317C5278A159D
:101E1400FA278A1583138000840A2308800010306F
:101E2400CC0ACC0AD20A5202031C052FD201520A50
:101E3400D100103051020318542F0310D5278A15EE
:101E4400C5278A15F5278A150008A400840A000806
:101E5400A50023082502031D312F2208240203189C
:101E6400522F0310520D283E8400C5278A152208DC
:101E7400C8002308C900CA01CB01F5278A15C52764
:101E84008A15FA278A158000840A23088000031023
:101E9400510D283E840048088000840A49088000C7
:101EA400D10A1B2F0F30D20A5202031C192F0430FF
:101EB400CD01CE01CF01D001D2000310D5278A1560
:101EC400C5278A152208A4002308A500A601A70196
:101ED4002408CD07250803110318013E031DCE076E
:101EE400260803110318013E031DCF072708031119
:101EF4000318013E031DD0070C30D20A5202031C02
:101F0400602F03300310D00CCF0CCE0CCD0CFF3E51
:101F1400031D842F4E08A1004D08A0000800A00056
:101F24000530A101A201A301D300D401D501D6013A
:101F34006608D30767080318670FD40768080318EF
:101F4400680FD50769080318690AD6075608A70059
:101F54005508A6005408A5005308A4000800230847
:101F6400E9002208E8002108E7002008E60008004C
:101F740036088312D300831637088312D400D501A0
:101F8400D601690808000008A200840A0008A3001A
:101F9400080067088316B700831266088316B60024
:101FA4000A30BE000800520D283E84008313080046
:101FB400660883178000840A6708800010342008AC
:101FC400E6002108E700E801E90108000310E90C34
:101FD400E80CE70CE60CFF3E080066088000840A63
:101FE4006708800008340310510D283E840008005F
:0C1FF4000310520D283E84002208080053
:084000000000000000000000B8
:02400E00C4EB01
:00000001FF
